{
  "_format": "hh-sol-artifact-1",
  "contractName": "Manager",
  "sourceName": "contracts/Manager.sol",
  "abi": [
    {
      "inputs": [
        {
          "internalType": "string",
          "name": "_name",
          "type": "string"
        }
      ],
      "name": "createTicket",
      "outputs": [],
      "stateMutability": "nonpayable",
      "type": "function"
    },
    {
      "inputs": [
        {
          "internalType": "uint256",
          "name": "_index",
          "type": "uint256"
        }
      ],
      "name": "deleteTicket",
      "outputs": [],
      "stateMutability": "nonpayable",
      "type": "function"
    },
    {
      "inputs": [],
      "name": "getTickets",
      "outputs": [
        {
          "components": [
            {
              "internalType": "uint8",
              "name": "status",
              "type": "uint8"
            },
            {
              "internalType": "string",
              "name": "name",
              "type": "string"
            },
            {
              "internalType": "string",
              "name": "description",
              "type": "string"
            }
          ],
          "internalType": "struct Manager.Ticket[]",
          "name": "",
          "type": "tuple[]"
        }
      ],
      "stateMutability": "view",
      "type": "function"
    },
    {
      "inputs": [
        {
          "internalType": "uint256",
          "name": "",
          "type": "uint256"
        }
      ],
      "name": "tickets",
      "outputs": [
        {
          "internalType": "uint8",
          "name": "status",
          "type": "uint8"
        },
        {
          "internalType": "string",
          "name": "name",
          "type": "string"
        },
        {
          "internalType": "string",
          "name": "description",
          "type": "string"
        }
      ],
      "stateMutability": "view",
      "type": "function"
    },
    {
      "inputs": [
        {
          "internalType": "uint256",
          "name": "_index",
          "type": "uint256"
        },
        {
          "internalType": "string",
          "name": "_description",
          "type": "string"
        }
      ],
      "name": "updateTicketDescription",
      "outputs": [],
      "stateMutability": "nonpayable",
      "type": "function"
    },
    {
      "inputs": [
        {
          "internalType": "uint256",
          "name": "_index",
          "type": "uint256"
        },
        {
          "internalType": "string",
          "name": "_name",
          "type": "string"
        }
      ],
      "name": "updateTicketName",
      "outputs": [],
      "stateMutability": "nonpayable",
      "type": "function"
    },
    {
      "inputs": [
        {
          "internalType": "uint256",
          "name": "_index",
          "type": "uint256"
        },
        {
          "internalType": "uint8",
          "name": "_status",
          "type": "uint8"
        }
      ],
      "name": "updateTicketStatus",
      "outputs": [],
      "stateMutability": "nonpayable",
      "type": "function"
    }
  ],
  "bytecode": "0x608060405234801561001057600080fd5b506110d9806100206000396000f3fe608060405234801561001057600080fd5b506004361061007d5760003560e01c80636743b2eb1161005b5780636743b2eb146100ee5780636897082f1461010a578063a460b81714610126578063d4ab7b83146101425761007d565b80634ed026221461008257806350b44712146100a05780635a93fb2d146100d2575b600080fd5b61008a61015e565b6040516100979190610cdc565b60405180910390f35b6100ba60048036038101906100b59190610a90565b6102fe565b6040516100c993929190610d1e565b60405180910390f35b6100ec60048036038101906100e79190610a90565b610455565b005b61010860048036038101906101039190610ab9565b610664565b005b610124600480360381019061011f9190610a4f565b6106c8565b005b610140600480360381019061013b9190610b0d565b610781565b005b61015c60048036038101906101579190610ab9565b6107e9565b005b60606000805480602002602001604051908101604052809291908181526020016000905b828210156102f557838290600052602060002090600302016040518060600160405290816000820160009054906101000a900460ff1660ff1660ff1681526020016001820180546101d290610f02565b80601f01602080910402602001604051908101604052809291908181526020018280546101fe90610f02565b801561024b5780601f106102205761010080835404028352916020019161024b565b820191906000526020600020905b81548152906001019060200180831161022e57829003601f168201915b5050505050815260200160028201805461026490610f02565b80601f016020809104026020016040519081016040528092919081815260200182805461029090610f02565b80156102dd5780601f106102b2576101008083540402835291602001916102dd565b820191906000526020600020905b8154815290600101906020018083116102c057829003601f168201915b50505050508152505081526020019060010190610182565b50505050905090565b6000818154811061030e57600080fd5b90600052602060002090600302016000915090508060000160009054906101000a900460ff169080600101805461034490610f02565b80601f016020809104026020016040519081016040528092919081815260200182805461037090610f02565b80156103bd5780601f10610392576101008083540402835291602001916103bd565b820191906000526020600020905b8154815290600101906020018083116103a057829003601f168201915b5050505050908060020180546103d290610f02565b80601f01602080910402602001604051908101604052809291908181526020018280546103fe90610f02565b801561044b5780601f106104205761010080835404028352916020019161044b565b820191906000526020600020905b81548152906001019060200180831161042e57829003601f168201915b5050505050905083565b600080549050811061049c576040517f08c379a000000000000000000000000000000000000000000000000000000000815260040161049390610cfe565b60405180910390fd5b60008190505b60016000805490506104b49190610e75565b8110156105db5760006001826104ca9190610e1f565b81548110610501577f4e487b7100000000000000000000000000000000000000000000000000000000600052603260045260246000fd5b906000526020600020906003020160008281548110610549577f4e487b7100000000000000000000000000000000000000000000000000000000600052603260045260246000fd5b90600052602060002090600302016000820160009054906101000a900460ff168160000160006101000a81548160ff021916908360ff160217905550600182018160010190805461059990610f02565b6105a492919061084d565b5060028201816002019080546105b990610f02565b6105c492919061084d565b5090505080806105d390610f65565b9150506104a2565b506000805480610614577f4e487b7100000000000000000000000000000000000000000000000000000000600052603160045260246000fd5b6001900381819060005260206000209060030201600080820160006101000a81549060ff021916905560018201600061064d91906108da565b60028201600061065d91906108da565b5050905550565b806000838154811061069f577f4e487b7100000000000000000000000000000000000000000000000000000000600052603260045260246000fd5b906000526020600020906003020160020190805190602001906106c392919061091a565b505050565b60006040518060600160405280600060ff16815260200183815260200160405180602001604052806000815250815250908060018154018082558091505060019003906000526020600020906003020160009091909190915060008201518160000160006101000a81548160ff021916908360ff160217905550602082015181600101908051906020019061075e92919061091a565b50604082015181600201908051906020019061077b92919061091a565b50505050565b80600083815481106107bc577f4e487b7100000000000000000000000000000000000000000000000000000000600052603260045260246000fd5b906000526020600020906003020160000160006101000a81548160ff021916908360ff1602179055505050565b8060008381548110610824577f4e487b7100000000000000000000000000000000000000000000000000000000600052603260045260246000fd5b9060005260206000209060030201600101908051906020019061084892919061091a565b505050565b82805461085990610f02565b90600052602060002090601f01602090048101928261087b57600085556108c9565b82601f1061088c57805485556108c9565b828001600101855582156108c957600052602060002091601f016020900482015b828111156108c85782548255916001019190600101906108ad565b5b5090506108d691906109a0565b5090565b5080546108e690610f02565b6000825580601f106108f85750610917565b601f01602090049060005260206000209081019061091691906109a0565b5b50565b82805461092690610f02565b90600052602060002090601f016020900481019282610948576000855561098f565b82601f1061096157805160ff191683800117855561098f565b8280016001018555821561098f579182015b8281111561098e578251825591602001919060010190610973565b5b50905061099c91906109a0565b5090565b5b808211156109b95760008160009055506001016109a1565b5090565b60006109d06109cb84610d88565b610d63565b9050828152602081018484840111156109e857600080fd5b6109f3848285610ec0565b509392505050565b600082601f830112610a0c57600080fd5b8135610a1c8482602086016109bd565b91505092915050565b600081359050610a3481611075565b92915050565b600081359050610a498161108c565b92915050565b600060208284031215610a6157600080fd5b600082013567ffffffffffffffff811115610a7b57600080fd5b610a87848285016109fb565b91505092915050565b600060208284031215610aa257600080fd5b6000610ab084828501610a25565b91505092915050565b60008060408385031215610acc57600080fd5b6000610ada85828601610a25565b925050602083013567ffffffffffffffff811115610af757600080fd5b610b03858286016109fb565b9150509250929050565b60008060408385031215610b2057600080fd5b6000610b2e85828601610a25565b9250506020610b3f85828601610a3a565b9150509250929050565b6000610b558383610c67565b905092915050565b6000610b6882610dc9565b610b728185610dec565b935083602082028501610b8485610db9565b8060005b85811015610bc05784840389528151610ba18582610b49565b9450610bac83610ddf565b925060208a01995050600181019050610b88565b50829750879550505050505092915050565b6000610bdd82610dd4565b610be78185610dfd565b9350610bf7818560208601610ecf565b610c008161103b565b840191505092915050565b6000610c1682610dd4565b610c208185610e0e565b9350610c30818560208601610ecf565b610c398161103b565b840191505092915050565b6000610c51601283610e0e565b9150610c5c8261104c565b602082019050919050565b6000606083016000830151610c7f6000860182610cbe565b5060208301518482036020860152610c978282610bd2565b91505060408301518482036040860152610cb18282610bd2565b9150508091505092915050565b610cc781610eb3565b82525050565b610cd681610eb3565b82525050565b60006020820190508181036000830152610cf68184610b5d565b905092915050565b60006020820190508181036000830152610d1781610c44565b9050919050565b6000606082019050610d336000830186610ccd565b8181036020830152610d458185610c0b565b90508181036040830152610d598184610c0b565b9050949350505050565b6000610d6d610d7e565b9050610d798282610f34565b919050565b6000604051905090565b600067ffffffffffffffff821115610da357610da261100c565b5b610dac8261103b565b9050602081019050919050565b6000819050602082019050919050565b600081519050919050565b600081519050919050565b6000602082019050919050565b600082825260208201905092915050565b600082825260208201905092915050565b600082825260208201905092915050565b6000610e2a82610ea9565b9150610e3583610ea9565b9250827fffffffffffffffffffffffffffffffffffffffffffffffffffffffffffffffff03821115610e6a57610e69610fae565b5b828201905092915050565b6000610e8082610ea9565b9150610e8b83610ea9565b925082821015610e9e57610e9d610fae565b5b828203905092915050565b6000819050919050565b600060ff82169050919050565b82818337600083830152505050565b60005b83811015610eed578082015181840152602081019050610ed2565b83811115610efc576000848401525b50505050565b60006002820490506001821680610f1a57607f821691505b60208210811415610f2e57610f2d610fdd565b5b50919050565b610f3d8261103b565b810181811067ffffffffffffffff82111715610f5c57610f5b61100c565b5b80604052505050565b6000610f7082610ea9565b91507fffffffffffffffffffffffffffffffffffffffffffffffffffffffffffffffff821415610fa357610fa2610fae565b5b600182019050919050565b7f4e487b7100000000000000000000000000000000000000000000000000000000600052601160045260246000fd5b7f4e487b7100000000000000000000000000000000000000000000000000000000600052602260045260246000fd5b7f4e487b7100000000000000000000000000000000000000000000000000000000600052604160045260246000fd5b6000601f19601f8301169050919050565b7f696e646578206f7574206f6620626f756e640000000000000000000000000000600082015250565b61107e81610ea9565b811461108957600080fd5b50565b61109581610eb3565b81146110a057600080fd5b5056fea264697066735822122041180209bca00564bbfaeafd93ea4ccd0f67f045cd685b87176b4a854303a81964736f6c63430008040033",
  "linkReferences": {},
  "deployedLinkReferences": {}
}